{
  "contractName": "Greeter",
  "abi": [
    {
      "inputs": [],
      "stateMutability": "nonpayable",
      "type": "constructor"
    },
    {
      "inputs": [],
      "name": "_greeting",
      "outputs": [
        {
          "internalType": "string",
          "name": "",
          "type": "string"
        }
      ],
      "stateMutability": "view",
      "type": "function"
    },
    {
      "inputs": [
        {
          "internalType": "string",
          "name": "greeting",
          "type": "string"
        }
      ],
      "name": "setGreeting",
      "outputs": [],
      "stateMutability": "nonpayable",
      "type": "function"
    },
    {
      "inputs": [],
      "name": "greet",
      "outputs": [
        {
          "internalType": "string",
          "name": "",
          "type": "string"
        }
      ],
      "stateMutability": "view",
      "type": "function"
    },
    {
      "inputs": [],
      "name": "owner",
      "outputs": [
        {
          "internalType": "address",
          "name": "",
          "type": "address"
        }
      ],
      "stateMutability": "view",
      "type": "function"
    }
  ],
  "bytecode": "0x60806040526040518060400160405280600b81526020017f48656c6c6f20776f726c64000000000000000000000000000000000000000000815250600090816200004a91906200031a565b503480156200005857600080fd5b5033600160006101000a81548173ffffffffffffffffffffffffffffffffffffffff021916908373ffffffffffffffffffffffffffffffffffffffff16021790555062000401565b600081519050919050565b7f4e487b7100000000000000000000000000000000000000000000000000000000600052604160045260246000fd5b7f4e487b7100000000000000000000000000000000000000000000000000000000600052602260045260246000fd5b600060028204905060018216806200012257607f821691505b602082108103620001385762000137620000da565b5b50919050565b60008190508160005260206000209050919050565b60006020601f8301049050919050565b600082821b905092915050565b600060088302620001a27fffffffffffffffffffffffffffffffffffffffffffffffffffffffffffffffff8262000163565b620001ae868362000163565b95508019841693508086168417925050509392505050565b6000819050919050565b6000819050919050565b6000620001fb620001f5620001ef84620001c6565b620001d0565b620001c6565b9050919050565b6000819050919050565b6200021783620001da565b6200022f620002268262000202565b84845462000170565b825550505050565b600090565b6200024662000237565b620002538184846200020c565b505050565b5b818110156200027b576200026f6000826200023c565b60018101905062000259565b5050565b601f821115620002ca5762000294816200013e565b6200029f8462000153565b81016020851015620002af578190505b620002c7620002be8562000153565b83018262000258565b50505b505050565b600082821c905092915050565b6000620002ef60001984600802620002cf565b1980831691505092915050565b60006200030a8383620002dc565b9150826002028217905092915050565b6200032582620000a0565b67ffffffffffffffff811115620003415762000340620000ab565b5b6200034d825462000109565b6200035a8282856200027f565b600060209050601f8311600181146200039257600084156200037d578287015190505b620003898582620002fc565b865550620003f9565b601f198416620003a2866200013e565b60005b82811015620003cc57848901518255600182019150602085019450602081019050620003a5565b86831015620003ec5784890151620003e8601f891682620002dc565b8355505b6001600288020188555050505b505050505050565b61074780620004116000396000f3fe608060405234801561001057600080fd5b506004361061004c5760003560e01c80638da5cb5b14610051578063a41368621461006f578063cfae32171461008b578063f3b4f1c9146100a9575b600080fd5b6100596100c7565b6040516100669190610268565b60405180910390f35b610089600480360381019061008491906102f2565b6100f1565b005b610093610107565b6040516100a091906103cf565b60405180910390f35b6100b1610199565b6040516100be91906103cf565b60405180910390f35b6000600160009054906101000a900473ffffffffffffffffffffffffffffffffffffffff16905090565b818160009182610102929190610641565b505050565b6060600080546101169061045a565b80601f01602080910402602001604051908101604052809291908181526020018280546101429061045a565b801561018f5780601f106101645761010080835404028352916020019161018f565b820191906000526020600020905b81548152906001019060200180831161017257829003601f168201915b5050505050905090565b600080546101a69061045a565b80601f01602080910402602001604051908101604052809291908181526020018280546101d29061045a565b801561021f5780601f106101f45761010080835404028352916020019161021f565b820191906000526020600020905b81548152906001019060200180831161020257829003601f168201915b505050505081565b600073ffffffffffffffffffffffffffffffffffffffff82169050919050565b600061025282610227565b9050919050565b61026281610247565b82525050565b600060208201905061027d6000830184610259565b92915050565b600080fd5b600080fd5b600080fd5b600080fd5b600080fd5b60008083601f8401126102b2576102b161028d565b5b8235905067ffffffffffffffff8111156102cf576102ce610292565b5b6020830191508360018202830111156102eb576102ea610297565b5b9250929050565b6000806020838503121561030957610308610283565b5b600083013567ffffffffffffffff81111561032757610326610288565b5b6103338582860161029c565b92509250509250929050565b600081519050919050565b600082825260208201905092915050565b60005b8381101561037957808201518184015260208101905061035e565b60008484015250505050565b6000601f19601f8301169050919050565b60006103a18261033f565b6103ab818561034a565b93506103bb81856020860161035b565b6103c481610385565b840191505092915050565b600060208201905081810360008301526103e98184610396565b905092915050565b600082905092915050565b7f4e487b7100000000000000000000000000000000000000000000000000000000600052604160045260246000fd5b7f4e487b7100000000000000000000000000000000000000000000000000000000600052602260045260246000fd5b6000600282049050600182168061047257607f821691505b6020821081036104855761048461042b565b5b50919050565b60008190508160005260206000209050919050565b60006020601f8301049050919050565b600082821b905092915050565b6000600883026104ed7fffffffffffffffffffffffffffffffffffffffffffffffffffffffffffffffff826104b0565b6104f786836104b0565b95508019841693508086168417925050509392505050565b6000819050919050565b6000819050919050565b600061053e6105396105348461050f565b610519565b61050f565b9050919050565b6000819050919050565b61055883610523565b61056c61056482610545565b8484546104bd565b825550505050565b600090565b610581610574565b61058c81848461054f565b505050565b5b818110156105b0576105a5600082610579565b600181019050610592565b5050565b601f8211156105f5576105c68161048b565b6105cf846104a0565b810160208510156105de578190505b6105f26105ea856104a0565b830182610591565b50505b505050565b600082821c905092915050565b6000610618600019846008026105fa565b1980831691505092915050565b60006106318383610607565b9150826002028217905092915050565b61064b83836103f1565b67ffffffffffffffff811115610664576106636103fc565b5b61066e825461045a565b6106798282856105b4565b6000601f8311600181146106a85760008415610696578287013590505b6106a08582610625565b865550610708565b601f1984166106b68661048b565b60005b828110156106de578489013582556001820191506020850194506020810190506106b9565b868310156106fb57848901356106f7601f891682610607565b8355505b6001600288020188555050505b5050505050505056fea2646970667358221220f8b3fb5a98c9f8e22c10a076ddcfe21669d26ed655da5c2caac6f5f068e8209464736f6c63430008130033",
  "immutableReferences": {},
  "source": "// SPDX-License-Identifier: MIT\n// 1. Pragma\n// pragma solidity ^0.8.8;\n\npragma solidity ^0.8.0;\n\ncontract Greeter {\n     string public _greeting = \"Hello world\";\n     address private _owner;\n     constructor ()  {\n        _owner = msg.sender;\n     }\n\n\nfunction setGreeting(string calldata greeting) external {\n_greeting = greeting;\n\n}\n\nfunction greet() external view returns (string memory){\n    return _greeting;\n}\nfunction owner() public view returns(address){\n    return _owner;\n}\n}",
  "sourcePath": "/home/viktor/Documents/projects/web3/greeter/contracts/Greeter.sol",
  "compiler": {
    "name": "solc",
    "version": "0.8.19+commit.7dd6d404.Emscripten.clang"
  },
  "schemaVersion": "3.4.13",
  "updatedAt": "2023-04-28T10:11:29.477Z",
  "devdoc": {
    "kind": "dev",
    "methods": {},
    "version": 1
  },
  "userdoc": {
    "kind": "user",
    "methods": {},
    "version": 1
  }
}