{
  "contractName": "Greeter",
  "abi": [
    {
      "inputs": [],
      "stateMutability": "nonpayable",
      "type": "constructor"
    },
    {
      "inputs": [],
      "name": "_greeting",
      "outputs": [
        {
          "internalType": "string",
          "name": "",
          "type": "string"
        }
      ],
      "stateMutability": "view",
      "type": "function"
    },
    {
      "inputs": [
        {
          "internalType": "string",
          "name": "greeting",
          "type": "string"
        }
      ],
      "name": "setGreeting",
      "outputs": [],
      "stateMutability": "nonpayable",
      "type": "function"
    },
    {
      "inputs": [],
      "name": "greet",
      "outputs": [
        {
          "internalType": "string",
          "name": "",
          "type": "string"
        }
      ],
      "stateMutability": "view",
      "type": "function"
    },
    {
      "inputs": [],
      "name": "owner",
      "outputs": [
        {
          "internalType": "address",
          "name": "",
          "type": "address"
        }
      ],
      "stateMutability": "view",
      "type": "function"
    }
  ],
  "bytecode": "0x60806040526040518060400160405280600b81526020017f48656c6c6f20776f726c64000000000000000000000000000000000000000000815250600090816200004a91906200031a565b503480156200005857600080fd5b5033600160006101000a81548173ffffffffffffffffffffffffffffffffffffffff021916908373ffffffffffffffffffffffffffffffffffffffff16021790555062000401565b600081519050919050565b7f4e487b7100000000000000000000000000000000000000000000000000000000600052604160045260246000fd5b7f4e487b7100000000000000000000000000000000000000000000000000000000600052602260045260246000fd5b600060028204905060018216806200012257607f821691505b602082108103620001385762000137620000da565b5b50919050565b60008190508160005260206000209050919050565b60006020601f8301049050919050565b600082821b905092915050565b600060088302620001a27fffffffffffffffffffffffffffffffffffffffffffffffffffffffffffffffff8262000163565b620001ae868362000163565b95508019841693508086168417925050509392505050565b6000819050919050565b6000819050919050565b6000620001fb620001f5620001ef84620001c6565b620001d0565b620001c6565b9050919050565b6000819050919050565b6200021783620001da565b6200022f620002268262000202565b84845462000170565b825550505050565b600090565b6200024662000237565b620002538184846200020c565b505050565b5b818110156200027b576200026f6000826200023c565b60018101905062000259565b5050565b601f821115620002ca5762000294816200013e565b6200029f8462000153565b81016020851015620002af578190505b620002c7620002be8562000153565b83018262000258565b50505b505050565b600082821c905092915050565b6000620002ef60001984600802620002cf565b1980831691505092915050565b60006200030a8383620002dc565b9150826002028217905092915050565b6200032582620000a0565b67ffffffffffffffff811115620003415762000340620000ab565b5b6200034d825462000109565b6200035a8282856200027f565b600060209050601f8311600181146200039257600084156200037d578287015190505b620003898582620002fc565b865550620003f9565b601f198416620003a2866200013e565b60005b82811015620003cc57848901518255600182019150602085019450602081019050620003a5565b86831015620003ec5784890151620003e8601f891682620002dc565b8355505b6001600288020188555050505b505050505050565b61084380620004116000396000f3fe608060405234801561001057600080fd5b506004361061004c5760003560e01c80638da5cb5b14610051578063a41368621461006f578063cfae32171461008b578063f3b4f1c9146100a9575b600080fd5b6100596100c7565b60405161006691906102f8565b60405180910390f35b61008960048036038101906100849190610382565b6100f1565b005b610093610197565b6040516100a0919061045f565b60405180910390f35b6100b1610229565b6040516100be919061045f565b60405180910390f35b6000600160009054906101000a900473ffffffffffffffffffffffffffffffffffffffff16905090565b600160009054906101000a900473ffffffffffffffffffffffffffffffffffffffff1673ffffffffffffffffffffffffffffffffffffffff163373ffffffffffffffffffffffffffffffffffffffff1614610181576040517f08c379a0000000000000000000000000000000000000000000000000000000008152600401610178906104cd565b60405180910390fd5b81816000918261019292919061073d565b505050565b6060600080546101a690610556565b80601f01602080910402602001604051908101604052809291908181526020018280546101d290610556565b801561021f5780601f106101f45761010080835404028352916020019161021f565b820191906000526020600020905b81548152906001019060200180831161020257829003601f168201915b5050505050905090565b6000805461023690610556565b80601f016020809104026020016040519081016040528092919081815260200182805461026290610556565b80156102af5780601f10610284576101008083540402835291602001916102af565b820191906000526020600020905b81548152906001019060200180831161029257829003601f168201915b505050505081565b600073ffffffffffffffffffffffffffffffffffffffff82169050919050565b60006102e2826102b7565b9050919050565b6102f2816102d7565b82525050565b600060208201905061030d60008301846102e9565b92915050565b600080fd5b600080fd5b600080fd5b600080fd5b600080fd5b60008083601f8401126103425761034161031d565b5b8235905067ffffffffffffffff81111561035f5761035e610322565b5b60208301915083600182028301111561037b5761037a610327565b5b9250929050565b6000806020838503121561039957610398610313565b5b600083013567ffffffffffffffff8111156103b7576103b6610318565b5b6103c38582860161032c565b92509250509250929050565b600081519050919050565b600082825260208201905092915050565b60005b838110156104095780820151818401526020810190506103ee565b60008484015250505050565b6000601f19601f8301169050919050565b6000610431826103cf565b61043b81856103da565b935061044b8185602086016103eb565b61045481610415565b840191505092915050565b600060208201905081810360008301526104798184610426565b905092915050565b7f596f75206d7573742062652074686520636f6e7472616374206f776e65720000600082015250565b60006104b7601e836103da565b91506104c282610481565b602082019050919050565b600060208201905081810360008301526104e6816104aa565b9050919050565b600082905092915050565b7f4e487b7100000000000000000000000000000000000000000000000000000000600052604160045260246000fd5b7f4e487b7100000000000000000000000000000000000000000000000000000000600052602260045260246000fd5b6000600282049050600182168061056e57607f821691505b60208210810361058157610580610527565b5b50919050565b60008190508160005260206000209050919050565b60006020601f8301049050919050565b600082821b905092915050565b6000600883026105e97fffffffffffffffffffffffffffffffffffffffffffffffffffffffffffffffff826105ac565b6105f386836105ac565b95508019841693508086168417925050509392505050565b6000819050919050565b6000819050919050565b600061063a6106356106308461060b565b610615565b61060b565b9050919050565b6000819050919050565b6106548361061f565b61066861066082610641565b8484546105b9565b825550505050565b600090565b61067d610670565b61068881848461064b565b505050565b5b818110156106ac576106a1600082610675565b60018101905061068e565b5050565b601f8211156106f1576106c281610587565b6106cb8461059c565b810160208510156106da578190505b6106ee6106e68561059c565b83018261068d565b50505b505050565b600082821c905092915050565b6000610714600019846008026106f6565b1980831691505092915050565b600061072d8383610703565b9150826002028217905092915050565b61074783836104ed565b67ffffffffffffffff8111156107605761075f6104f8565b5b61076a8254610556565b6107758282856106b0565b6000601f8311600181146107a45760008415610792578287013590505b61079c8582610721565b865550610804565b601f1984166107b286610587565b60005b828110156107da578489013582556001820191506020850194506020810190506107b5565b868310156107f757848901356107f3601f891682610703565b8355505b6001600288020188555050505b5050505050505056fea2646970667358221220bf62b0d47bb10ecbb7525d9697e1921fbf63057a0f5214b53dab4fcc21c2ea4464736f6c63430008130033",
  "immutableReferences": {},
  "source": "// SPDX-License-Identifier: MIT\n// 1. Pragma\n// pragma solidity ^0.8.8;\n\npragma solidity ^0.8.0;\n\ncontract Greeter {\n     string public _greeting = \"Hello world\";\n     address private _owner;\n     constructor ()  {\n        _owner = msg.sender;\n     }\n    modifier onlyOwner(){\n        require(\n            msg.sender == _owner,\n            \"Ownable: caller is not the owner\"\n        );_;\n    }\n\nfunction setGreeting(string calldata greeting) external{ // added a modifier to be called befpre\nif(msg.sender != _owner){\n    revert('You must be the contract owner');\n} else {\n    _greeting = greeting;\n}\n\n\n}\n\nfunction greet() external view returns (string memory){\n    return _greeting;\n}\nfunction owner() public view returns(address){\n    return _owner;\n}\n}",
  "sourcePath": "/home/viktor/Documents/projects/web3/greeter/contracts/Greeter.sol",
  "compiler": {
    "name": "solc",
    "version": "0.8.19+commit.7dd6d404.Emscripten.clang"
  },
  "schemaVersion": "3.4.13",
  "updatedAt": "2023-04-29T07:44:26.708Z",
  "devdoc": {
    "kind": "dev",
    "methods": {},
    "version": 1
  },
  "userdoc": {
    "kind": "user",
    "methods": {},
    "version": 1
  }
}